{
  "contractName": "ScareBears",
  "abi": [
    {
      "inputs": [],
      "stateMutability": "nonpayable",
      "type": "constructor"
    },
    {
      "inputs": [],
      "name": "ApprovalCallerNotOwnerNorApproved",
      "type": "error"
    },
    {
      "inputs": [],
      "name": "ApprovalQueryForNonexistentToken",
      "type": "error"
    },
    {
      "inputs": [],
      "name": "ApprovalToCurrentOwner",
      "type": "error"
    },
    {
      "inputs": [],
      "name": "ApproveToCaller",
      "type": "error"
    },
    {
      "inputs": [],
      "name": "BalanceQueryForZeroAddress",
      "type": "error"
    },
    {
      "inputs": [],
      "name": "MintToZeroAddress",
      "type": "error"
    },
    {
      "inputs": [],
      "name": "MintZeroQuantity",
      "type": "error"
    },
    {
      "inputs": [],
      "name": "OwnerIndexOutOfBounds",
      "type": "error"
    },
    {
      "inputs": [],
      "name": "OwnerQueryForNonexistentToken",
      "type": "error"
    },
    {
      "inputs": [],
      "name": "TokenIndexOutOfBounds",
      "type": "error"
    },
    {
      "inputs": [],
      "name": "TransferCallerNotOwnerNorApproved",
      "type": "error"
    },
    {
      "inputs": [],
      "name": "TransferFromIncorrectOwner",
      "type": "error"
    },
    {
      "inputs": [],
      "name": "TransferToNonERC721ReceiverImplementer",
      "type": "error"
    },
    {
      "inputs": [],
      "name": "TransferToZeroAddress",
      "type": "error"
    },
    {
      "inputs": [],
      "name": "UnableDetermineTokenOwner",
      "type": "error"
    },
    {
      "anonymous": false,
      "inputs": [
        {
          "indexed": true,
          "internalType": "address",
          "name": "owner",
          "type": "address"
        },
        {
          "indexed": true,
          "internalType": "address",
          "name": "approved",
          "type": "address"
        },
        {
          "indexed": true,
          "internalType": "uint256",
          "name": "tokenId",
          "type": "uint256"
        }
      ],
      "name": "Approval",
      "type": "event"
    },
    {
      "anonymous": false,
      "inputs": [
        {
          "indexed": true,
          "internalType": "address",
          "name": "owner",
          "type": "address"
        },
        {
          "indexed": true,
          "internalType": "address",
          "name": "operator",
          "type": "address"
        },
        {
          "indexed": false,
          "internalType": "bool",
          "name": "approved",
          "type": "bool"
        }
      ],
      "name": "ApprovalForAll",
      "type": "event"
    },
    {
      "anonymous": false,
      "inputs": [
        {
          "indexed": true,
          "internalType": "address",
          "name": "previousOwner",
          "type": "address"
        },
        {
          "indexed": true,
          "internalType": "address",
          "name": "newOwner",
          "type": "address"
        }
      ],
      "name": "OwnershipTransferred",
      "type": "event"
    },
    {
      "anonymous": false,
      "inputs": [
        {
          "indexed": true,
          "internalType": "address",
          "name": "from",
          "type": "address"
        },
        {
          "indexed": true,
          "internalType": "address",
          "name": "to",
          "type": "address"
        },
        {
          "indexed": true,
          "internalType": "uint256",
          "name": "tokenId",
          "type": "uint256"
        }
      ],
      "name": "Transfer",
      "type": "event"
    },
    {
      "inputs": [],
      "name": "MAX_MINT",
      "outputs": [
        {
          "internalType": "uint256",
          "name": "",
          "type": "uint256"
        }
      ],
      "stateMutability": "view",
      "type": "function",
      "constant": true
    },
    {
      "inputs": [],
      "name": "MAX_WHITELIST_SUPPLY",
      "outputs": [
        {
          "internalType": "uint256",
          "name": "",
          "type": "uint256"
        }
      ],
      "stateMutability": "view",
      "type": "function",
      "constant": true
    },
    {
      "inputs": [],
      "name": "PUBLIC_SALE_PRICE",
      "outputs": [
        {
          "internalType": "uint256",
          "name": "",
          "type": "uint256"
        }
      ],
      "stateMutability": "view",
      "type": "function",
      "constant": true
    },
    {
      "inputs": [],
      "name": "WHITELIST_SALE_PRICE",
      "outputs": [
        {
          "internalType": "uint256",
          "name": "",
          "type": "uint256"
        }
      ],
      "stateMutability": "view",
      "type": "function",
      "constant": true
    },
    {
      "inputs": [
        {
          "internalType": "address",
          "name": "to",
          "type": "address"
        },
        {
          "internalType": "uint256",
          "name": "tokenId",
          "type": "uint256"
        }
      ],
      "name": "approve",
      "outputs": [],
      "stateMutability": "nonpayable",
      "type": "function"
    },
    {
      "inputs": [],
      "name": "artistAddress",
      "outputs": [
        {
          "internalType": "address",
          "name": "",
          "type": "address"
        }
      ],
      "stateMutability": "view",
      "type": "function",
      "constant": true
    },
    {
      "inputs": [
        {
          "internalType": "address",
          "name": "owner",
          "type": "address"
        }
      ],
      "name": "balanceOf",
      "outputs": [
        {
          "internalType": "uint256",
          "name": "",
          "type": "uint256"
        }
      ],
      "stateMutability": "view",
      "type": "function",
      "constant": true
    },
    {
      "inputs": [
        {
          "internalType": "uint256",
          "name": "tokenId",
          "type": "uint256"
        }
      ],
      "name": "getApproved",
      "outputs": [
        {
          "internalType": "address",
          "name": "",
          "type": "address"
        }
      ],
      "stateMutability": "view",
      "type": "function",
      "constant": true
    },
    {
      "inputs": [
        {
          "internalType": "address",
          "name": "owner",
          "type": "address"
        },
        {
          "internalType": "address",
          "name": "operator",
          "type": "address"
        }
      ],
      "name": "isApprovedForAll",
      "outputs": [
        {
          "internalType": "bool",
          "name": "",
          "type": "bool"
        }
      ],
      "stateMutability": "view",
      "type": "function",
      "constant": true
    },
    {
      "inputs": [],
      "name": "isRevealed",
      "outputs": [
        {
          "internalType": "bool",
          "name": "",
          "type": "bool"
        }
      ],
      "stateMutability": "view",
      "type": "function",
      "constant": true
    },
    {
      "inputs": [],
      "name": "maxSupply",
      "outputs": [
        {
          "internalType": "uint256",
          "name": "",
          "type": "uint256"
        }
      ],
      "stateMutability": "view",
      "type": "function",
      "constant": true
    },
    {
      "inputs": [],
      "name": "name",
      "outputs": [
        {
          "internalType": "string",
          "name": "",
          "type": "string"
        }
      ],
      "stateMutability": "view",
      "type": "function",
      "constant": true
    },
    {
      "inputs": [],
      "name": "owner",
      "outputs": [
        {
          "internalType": "address",
          "name": "",
          "type": "address"
        }
      ],
      "stateMutability": "view",
      "type": "function",
      "constant": true
    },
    {
      "inputs": [
        {
          "internalType": "uint256",
          "name": "tokenId",
          "type": "uint256"
        }
      ],
      "name": "ownerOf",
      "outputs": [
        {
          "internalType": "address",
          "name": "",
          "type": "address"
        }
      ],
      "stateMutability": "view",
      "type": "function",
      "constant": true
    },
    {
      "inputs": [],
      "name": "pause",
      "outputs": [
        {
          "internalType": "bool",
          "name": "",
          "type": "bool"
        }
      ],
      "stateMutability": "view",
      "type": "function",
      "constant": true
    },
    {
      "inputs": [],
      "name": "placeholderTokenUri",
      "outputs": [
        {
          "internalType": "string",
          "name": "",
          "type": "string"
        }
      ],
      "stateMutability": "view",
      "type": "function",
      "constant": true
    },
    {
      "inputs": [],
      "name": "publicSale",
      "outputs": [
        {
          "internalType": "bool",
          "name": "",
          "type": "bool"
        }
      ],
      "stateMutability": "view",
      "type": "function",
      "constant": true
    },
    {
      "inputs": [],
      "name": "renounceOwnership",
      "outputs": [],
      "stateMutability": "nonpayable",
      "type": "function"
    },
    {
      "inputs": [
        {
          "internalType": "address",
          "name": "from",
          "type": "address"
        },
        {
          "internalType": "address",
          "name": "to",
          "type": "address"
        },
        {
          "internalType": "uint256",
          "name": "tokenId",
          "type": "uint256"
        }
      ],
      "name": "safeTransferFrom",
      "outputs": [],
      "stateMutability": "nonpayable",
      "type": "function"
    },
    {
      "inputs": [
        {
          "internalType": "address",
          "name": "from",
          "type": "address"
        },
        {
          "internalType": "address",
          "name": "to",
          "type": "address"
        },
        {
          "internalType": "uint256",
          "name": "tokenId",
          "type": "uint256"
        },
        {
          "internalType": "bytes",
          "name": "_data",
          "type": "bytes"
        }
      ],
      "name": "safeTransferFrom",
      "outputs": [],
      "stateMutability": "nonpayable",
      "type": "function"
    },
    {
      "inputs": [
        {
          "internalType": "address",
          "name": "operator",
          "type": "address"
        },
        {
          "internalType": "bool",
          "name": "approved",
          "type": "bool"
        }
      ],
      "name": "setApprovalForAll",
      "outputs": [],
      "stateMutability": "nonpayable",
      "type": "function"
    },
    {
      "inputs": [
        {
          "internalType": "bytes4",
          "name": "interfaceId",
          "type": "bytes4"
        }
      ],
      "name": "supportsInterface",
      "outputs": [
        {
          "internalType": "bool",
          "name": "",
          "type": "bool"
        }
      ],
      "stateMutability": "view",
      "type": "function",
      "constant": true
    },
    {
      "inputs": [],
      "name": "symbol",
      "outputs": [
        {
          "internalType": "string",
          "name": "",
          "type": "string"
        }
      ],
      "stateMutability": "view",
      "type": "function",
      "constant": true
    },
    {
      "inputs": [
        {
          "internalType": "uint256",
          "name": "index",
          "type": "uint256"
        }
      ],
      "name": "tokenByIndex",
      "outputs": [
        {
          "internalType": "uint256",
          "name": "",
          "type": "uint256"
        }
      ],
      "stateMutability": "view",
      "type": "function",
      "constant": true
    },
    {
      "inputs": [
        {
          "internalType": "address",
          "name": "owner",
          "type": "address"
        },
        {
          "internalType": "uint256",
          "name": "index",
          "type": "uint256"
        }
      ],
      "name": "tokenOfOwnerByIndex",
      "outputs": [
        {
          "internalType": "uint256",
          "name": "",
          "type": "uint256"
        }
      ],
      "stateMutability": "view",
      "type": "function",
      "constant": true
    },
    {
      "inputs": [
        {
          "internalType": "address",
          "name": "",
          "type": "address"
        }
      ],
      "name": "totalMint",
      "outputs": [
        {
          "internalType": "uint256",
          "name": "",
          "type": "uint256"
        }
      ],
      "stateMutability": "view",
      "type": "function",
      "constant": true
    },
    {
      "inputs": [],
      "name": "totalSupply",
      "outputs": [
        {
          "internalType": "uint256",
          "name": "",
          "type": "uint256"
        }
      ],
      "stateMutability": "view",
      "type": "function",
      "constant": true
    },
    {
      "inputs": [
        {
          "internalType": "address",
          "name": "from",
          "type": "address"
        },
        {
          "internalType": "address",
          "name": "to",
          "type": "address"
        },
        {
          "internalType": "uint256",
          "name": "tokenId",
          "type": "uint256"
        }
      ],
      "name": "transferFrom",
      "outputs": [],
      "stateMutability": "nonpayable",
      "type": "function"
    },
    {
      "inputs": [
        {
          "internalType": "address",
          "name": "newOwner",
          "type": "address"
        }
      ],
      "name": "transferOwnership",
      "outputs": [],
      "stateMutability": "nonpayable",
      "type": "function"
    },
    {
      "inputs": [
        {
          "internalType": "uint256",
          "name": "_quantity",
          "type": "uint256"
        }
      ],
      "name": "mint",
      "outputs": [],
      "stateMutability": "payable",
      "type": "function",
      "payable": true
    },
    {
      "inputs": [
        {
          "internalType": "bytes32[]",
          "name": "_merkleProof",
          "type": "bytes32[]"
        },
        {
          "internalType": "uint256",
          "name": "_quantity",
          "type": "uint256"
        }
      ],
      "name": "whitelistMint",
      "outputs": [],
      "stateMutability": "payable",
      "type": "function",
      "payable": true
    },
    {
      "inputs": [
        {
          "internalType": "uint256",
          "name": "tokenId",
          "type": "uint256"
        }
      ],
      "name": "tokenURI",
      "outputs": [
        {
          "internalType": "string",
          "name": "",
          "type": "string"
        }
      ],
      "stateMutability": "view",
      "type": "function",
      "constant": true
    },
    {
      "inputs": [],
      "name": "walletOf",
      "outputs": [
        {
          "internalType": "uint256[]",
          "name": "",
          "type": "uint256[]"
        }
      ],
      "stateMutability": "view",
      "type": "function",
      "constant": true
    },
    {
      "inputs": [
        {
          "internalType": "string",
          "name": "_baseTokenUri",
          "type": "string"
        }
      ],
      "name": "setTokenUri",
      "outputs": [],
      "stateMutability": "nonpayable",
      "type": "function"
    },
    {
      "inputs": [
        {
          "internalType": "bytes32",
          "name": "_merkleRoot",
          "type": "bytes32"
        }
      ],
      "name": "setMerkleRoot",
      "outputs": [],
      "stateMutability": "nonpayable",
      "type": "function"
    },
    {
      "inputs": [],
      "name": "getMerkleRoot",
      "outputs": [
        {
          "internalType": "bytes32",
          "name": "",
          "type": "bytes32"
        }
      ],
      "stateMutability": "view",
      "type": "function",
      "constant": true
    },
    {
      "inputs": [
        {
          "internalType": "uint256",
          "name": "_maxSupply",
          "type": "uint256"
        }
      ],
      "name": "setMaxSupply",
      "outputs": [],
      "stateMutability": "nonpayable",
      "type": "function"
    },
    {
      "inputs": [],
      "name": "togglePause",
      "outputs": [],
      "stateMutability": "nonpayable",
      "type": "function"
    },
    {
      "inputs": [],
      "name": "toggleReveal",
      "outputs": [],
      "stateMutability": "nonpayable",
      "type": "function"
    },
    {
      "inputs": [],
      "name": "togglePublicSale",
      "outputs": [],
      "stateMutability": "nonpayable",
      "type": "function"
    },
    {
      "inputs": [],
      "name": "withdraw",
      "outputs": [],
      "stateMutability": "nonpayable",
      "type": "function"
    }
  ],
  "bytecode": "0x60806040526122b86008553480156200001757600080fd5b50604080518082018252600b81526a536361726520426561727360a81b60208083019182528351808501909452600384526229a1a160e91b9084015281519192916200006691600191620000f5565b5080516200007c906002906020840190620000f5565b50505062000099620000936200009f60201b60201c565b620000a3565b620001d8565b3390565b600780546001600160a01b038381166001600160a01b0319831681179093556040519116919082907f8be0079c531659141344cd1fd0a4f28419497f9722a3daafe3b4186f6b6457e090600090a35050565b82805462000103906200019b565b90600052602060002090601f01602090048101928262000127576000855562000172565b82601f106200014257805160ff191683800117855562000172565b8280016001018555821562000172579182015b828111156200017257825182559160200191906001019062000155565b506200018092915062000184565b5090565b5b8082111562000180576000815560010162000185565b600181811c90821680620001b057607f821691505b60208210811415620001d257634e487b7160e01b600052602260045260246000fd5b50919050565b612b5280620001e86000396000f3fe6080604052600436106102c65760003560e01c806370a0823111610179578063b88d4fde116100d6578063d7eb3f3a1161008a578063e985e9c511610064578063e985e9c51461073e578063f0292a0314610787578063f2fde38b1461079c57600080fd5b8063d7eb3f3a146106d5578063e0fa1842146106fc578063e222c7f91461072957600080fd5b8063c4ae3168116100bb578063c4ae31681461068a578063c87b56dd1461069f578063d5abeb01146106bf57600080fd5b8063b88d4fde1461064e578063bc912e1a1461066e57600080fd5b80638da5cb5b1161012d578063a0712d6811610112578063a0712d6814610605578063a22cb46514610618578063af2d4f141461063857600080fd5b80638da5cb5b146105d257806395d89b41146105f057600080fd5b80637cb647591161015e5780637cb647591461057057806383a974a2146105905780638456cb59146105b257600080fd5b806370a082311461053b578063715018a61461055b57600080fd5b806333bc1c5c116102275780634f6ccce7116101db5780635b8ad429116101c05780635b8ad429146104e65780636352211e146104fb5780636f8b44b01461051b57600080fd5b80634f6ccce7146104ac57806354214f69146104cc57600080fd5b806342842e0e1161020c57806342842e0e1461046257806349590657146104825780634cf5f7a41461049757600080fd5b806333bc1c5c1461042e5780633ccfd60b1461044d57600080fd5b8063095ea7b31161027e57806323b872dd1161026357806323b872dd146103db5780632904e6d9146103fb5780632f745c591461040e57600080fd5b8063095ea7b3146103a657806318160ddd146103c657600080fd5b806306fdde03116102af57806306fdde031461032257806307e89ec014610344578063081812fc1461036e57600080fd5b806301ffc9a7146102cb5780630675b7c614610300575b600080fd5b3480156102d757600080fd5b506102eb6102e63660046124d4565b6107bc565b60405190151581526020015b60405180910390f35b34801561030c57600080fd5b5061032061031b366004612597565b61088d565b005b34801561032e57600080fd5b50610337610903565b6040516102f79190612638565b34801561035057600080fd5b50610360670214e8348c4f000081565b6040519081526020016102f7565b34801561037a57600080fd5b5061038e61038936600461264b565b610995565b6040516001600160a01b0390911681526020016102f7565b3480156103b257600080fd5b506103206103c1366004612680565b6109f4565b3480156103d257600080fd5b50600054610360565b3480156103e757600080fd5b506103206103f63660046126aa565b610ab4565b6103206104093660046126e6565b610abf565b34801561041a57600080fd5b50610360610429366004612680565b610eb2565b34801561043a57600080fd5b50600b546102eb90610100900460ff1681565b34801561045957600080fd5b50610320610fa0565b34801561046e57600080fd5b5061032061047d3660046126aa565b61107e565b34801561048e57600080fd5b50600c54610360565b3480156104a357600080fd5b50610337611099565b3480156104b857600080fd5b506103606104c736600461264b565b611127565b3480156104d857600080fd5b50600b546102eb9060ff1681565b3480156104f257600080fd5b50610320611167565b34801561050757600080fd5b5061038e61051636600461264b565b6111d5565b34801561052757600080fd5b5061032061053636600461264b565b6111e7565b34801561054757600080fd5b50610360610556366004612792565b611246565b34801561056757600080fd5b506103206112b6565b34801561057c57600080fd5b5061032061058b36600461264b565b61131c565b34801561059c57600080fd5b506105a561137b565b6040516102f791906127ad565b3480156105be57600080fd5b50600b546102eb9062010000900460ff1681565b3480156105de57600080fd5b506007546001600160a01b031661038e565b3480156105fc57600080fd5b5061033761141e565b61032061061336600461264b565b61142d565b34801561062457600080fd5b506103206106333660046127f1565b61177f565b34801561064457600080fd5b50610360610bb881565b34801561065a57600080fd5b5061032061066936600461282d565b61182e565b34801561067a57600080fd5b506103606701f161421c8e000081565b34801561069657600080fd5b50610320611868565b3480156106ab57600080fd5b506103376106ba36600461264b565b6118e1565b3480156106cb57600080fd5b5061036060085481565b3480156106e157600080fd5b50600b5461038e90630100000090046001600160a01b031681565b34801561070857600080fd5b50610360610717366004612792565b600d6020526000908152604090205481565b34801561073557600080fd5b50610320611a58565b34801561074a57600080fd5b506102eb6107593660046128a9565b6001600160a01b03918216600090815260066020908152604080832093909416825291909152205460ff1690565b34801561079357600080fd5b50610360600381565b3480156107a857600080fd5b506103206107b7366004612792565b611acf565b60006001600160e01b031982167f80ac58cd00000000000000000000000000000000000000000000000000000000148061081f57506001600160e01b031982167f5b5e139f00000000000000000000000000000000000000000000000000000000145b8061085357506001600160e01b031982167f780e9d6300000000000000000000000000000000000000000000000000000000145b8061088757507f01ffc9a7000000000000000000000000000000000000000000000000000000006001600160e01b03198316145b92915050565b6007546001600160a01b031633146108ec5760405162461bcd60e51b815260206004820181905260248201527f4f776e61626c653a2063616c6c6572206973206e6f7420746865206f776e657260448201526064015b60405180910390fd5b80516108ff90600990602084019061242e565b5050565b606060018054610912906128dc565b80601f016020809104026020016040519081016040528092919081815260200182805461093e906128dc565b801561098b5780601f106109605761010080835404028352916020019161098b565b820191906000526020600020905b81548152906001019060200180831161096e57829003601f168201915b5050505050905090565b60006109a2826000541190565b6109d8576040517fcf4700e400000000000000000000000000000000000000000000000000000000815260040160405180910390fd5b506000908152600560205260409020546001600160a01b031690565b60006109ff826111d5565b9050806001600160a01b0316836001600160a01b03161415610a4d576040517f943f7b8c00000000000000000000000000000000000000000000000000000000815260040160405180910390fd5b336001600160a01b03821614801590610a6d5750610a6b8133610759565b155b15610aa4576040517fcfb3b94200000000000000000000000000000000000000000000000000000000815260040160405180910390fd5b610aaf838383611bae565b505050565b610aaf838383611c22565b323314610b345760405162461bcd60e51b815260206004820152602d60248201527f5363617265204265617273203a3a2043616e6e6f742062652063616c6c65642060448201527f6279206120636f6e74726163740000000000000000000000000000000000000060648201526084016108e3565b604080517fffffffffffffffffffffffffffffffffffffffff0000000000000000000000003360601b166020808301919091528251808303601401815260349092019092528051910120600b5462010000900460ff1615610be25760405162461bcd60e51b815260206004820152602260248201527f5363617265204265617273203a3a204d696e74696e67206973206f6e20506175604482015261736560f01b60648201526084016108e3565b600b54610100900460ff1615610c605760405162461bcd60e51b815260206004820152602560248201527f5363617265204265617273203a3a2057686974656c6973742073616c6520697360448201527f206f76657200000000000000000000000000000000000000000000000000000060648201526084016108e3565b60085482610c6d60005490565b610c77919061292d565b1115610ceb5760405162461bcd60e51b815260206004820152602c60248201527f5363617265204265617273203a3a2043616e6e6f74206d696e74206265796f6e60448201527f64206d617820737570706c79000000000000000000000000000000000000000060648201526084016108e3565b336000908152600d6020526040902054600390610d0990849061292d565b1115610d7d5760405162461bcd60e51b815260206004820152603560248201527f5363617265204265617273203a3a2043616e6e6f74206d696e74206265796f6e60448201527f642077686974656c697374206d6178206d696e7421000000000000000000000060648201526084016108e3565b610d8f826701f161421c8e0000612945565b341015610e045760405162461bcd60e51b815260206004820152602960248201527f5363617265204265617273203a3a205061796d656e742069732062656c6f772060448201527f746865207072696365000000000000000000000000000000000000000000000060648201526084016108e3565b610e1183600c5483611e9f565b610e835760405162461bcd60e51b815260206004820152602660248201527f5363617265204265617273203a3a20596f7520617265206e6f7420776869746560448201527f6c6973746564000000000000000000000000000000000000000000000000000060648201526084016108e3565b336000908152600d602052604081208054849290610ea290849061292d565b90915550610aaf90503383611eb5565b6000610ebd83611246565b8210610ef5576040517f0ddac30e00000000000000000000000000000000000000000000000000000000815260040160405180910390fd5b600080549080805b83811015610f8e576000818152600360209081526040918290208251808401909352546001600160a01b038116808452600160a01b90910467ffffffffffffffff169183019190915215610f5057805192505b876001600160a01b0316836001600160a01b03161415610f855786841415610f7e5750935061088792505050565b6001909301925b50600101610efd565b50610f97612964565b50505092915050565b6007546001600160a01b03163314610ffa5760405162461bcd60e51b815260206004820181905260248201527f4f776e61626c653a2063616c6c6572206973206e6f7420746865206f776e657260448201526064016108e3565b600b544790630100000090046001600160a01b03166108fc606461101f846014612945565b6110299190612990565b6040518115909202916000818181858888f19350505050158015611051573d6000803e3d6000fd5b5060405133904780156108fc02916000818181858888f193505050501580156108ff573d6000803e3d6000fd5b610aaf8383836040518060200160405280600081525061182e565b600a80546110a6906128dc565b80601f01602080910402602001604051908101604052809291908181526020018280546110d2906128dc565b801561111f5780601f106110f45761010080835404028352916020019161111f565b820191906000526020600020905b81548152906001019060200180831161110257829003601f168201915b505050505081565b600080548210611163576040517fa723001c00000000000000000000000000000000000000000000000000000000815260040160405180910390fd5b5090565b6007546001600160a01b031633146111c15760405162461bcd60e51b815260206004820181905260248201527f4f776e61626c653a2063616c6c6572206973206e6f7420746865206f776e657260448201526064016108e3565b600b805460ff19811660ff90911615179055565b60006111e082611ecf565b5192915050565b6007546001600160a01b031633146112415760405162461bcd60e51b815260206004820181905260248201527f4f776e61626c653a2063616c6c6572206973206e6f7420746865206f776e657260448201526064016108e3565b600855565b60006001600160a01b038216611288576040517f8f4eb60400000000000000000000000000000000000000000000000000000000815260040160405180910390fd5b506001600160a01b03166000908152600460205260409020546fffffffffffffffffffffffffffffffff1690565b6007546001600160a01b031633146113105760405162461bcd60e51b815260206004820181905260248201527f4f776e61626c653a2063616c6c6572206973206e6f7420746865206f776e657260448201526064016108e3565b61131a6000611f7d565b565b6007546001600160a01b031633146113765760405162461bcd60e51b815260206004820181905260248201527f4f776e61626c653a2063616c6c6572206973206e6f7420746865206f776e657260448201526064016108e3565b600c55565b606033600061138982611246565b905060008167ffffffffffffffff8111156113a6576113a66124f8565b6040519080825280602002602001820160405280156113cf578160200160208202803683370190505b50905060005b82811015611416576113e78482610eb2565b8282815181106113f9576113f96129a4565b60209081029190910101528061140e816129ba565b9150506113d5565b509392505050565b606060028054610912906128dc565b3233146114a25760405162461bcd60e51b815260206004820152602d60248201527f5363617265204265617273203a3a2043616e6e6f742062652063616c6c65642060448201527f6279206120636f6e74726163740000000000000000000000000000000000000060648201526084016108e3565b600b5462010000900460ff16156115065760405162461bcd60e51b815260206004820152602260248201527f5363617265204265617273203a3a204d696e74696e67206973206f6e20506175604482015261736560f01b60648201526084016108e3565b600b54610100900460ff166115a95760405162461bcd60e51b815260206004820152605260248201527f5363617265204265617273203a3a205075626c69632073616c65206973206e6f60448201527f7420796574206163746976617465642c2077686974656c6973742073616c652060648201527f6973207374696c6c206f6e20676f696e672e0000000000000000000000000000608482015260a4016108e3565b600854816115b660005490565b6115c0919061292d565b11156116345760405162461bcd60e51b815260206004820152602c60248201527f5363617265204265617273203a3a2043616e6e6f74206d696e74206265796f6e60448201527f64206d617820737570706c79000000000000000000000000000000000000000060648201526084016108e3565b336000908152600d602052604090205460039061165290839061292d565b11156116c65760405162461bcd60e51b815260206004820152602660248201527f5363617265204265617273203a3a20416c7265616479206d696e74656420332060448201527f74696d657321000000000000000000000000000000000000000000000000000060648201526084016108e3565b6116d881670214e8348c4f0000612945565b34101561174d5760405162461bcd60e51b815260206004820152602960248201527f5363617265204265617273203a3a205061796d656e742069732062656c6f772060448201527f746865207072696365000000000000000000000000000000000000000000000060648201526084016108e3565b336000908152600d60205260408120805483929061176c90849061292d565b9091555061177c90503382611eb5565b50565b6001600160a01b0382163314156117c2576040517fb06307db00000000000000000000000000000000000000000000000000000000815260040160405180910390fd5b3360008181526006602090815260408083206001600160a01b03871680855290835292819020805460ff191686151590811790915590519081529192917f17307eab39ab6107e8899845ad3d59bd9653f200f220920489ca2b5937696c31910160405180910390a35050565b611839848484611c22565b61184584848484611fe7565b611862576040516368d2bf6b60e11b815260040160405180910390fd5b50505050565b6007546001600160a01b031633146118c25760405162461bcd60e51b815260206004820181905260248201527f4f776e61626c653a2063616c6c6572206973206e6f7420746865206f776e657260448201526064016108e3565b600b805462ff0000198116620100009182900460ff1615909102179055565b60606118ee826000541190565b6119605760405162461bcd60e51b815260206004820152602f60248201527f4552433732314d657461646174613a2055524920717565727920666f72206e6f60448201527f6e6578697374656e7420746f6b656e000000000000000000000000000000000060648201526084016108e3565b600b5460ff166119fc57600a8054611977906128dc565b80601f01602080910402602001604051908101604052809291908181526020018280546119a3906128dc565b80156119f05780601f106119c5576101008083540402835291602001916119f0565b820191906000526020600020905b8154815290600101906020018083116119d357829003601f168201915b50505050509050919050565b600060098054611a0b906128dc565b905011611a275760405180602001604052806000815250610887565b6009611a32836120e7565b604051602001611a439291906129f1565b60405160208183030381529060405292915050565b6007546001600160a01b03163314611ab25760405162461bcd60e51b815260206004820181905260248201527f4f776e61626c653a2063616c6c6572206973206e6f7420746865206f776e657260448201526064016108e3565b600b805461ff001981166101009182900460ff1615909102179055565b6007546001600160a01b03163314611b295760405162461bcd60e51b815260206004820181905260248201527f4f776e61626c653a2063616c6c6572206973206e6f7420746865206f776e657260448201526064016108e3565b6001600160a01b038116611ba55760405162461bcd60e51b815260206004820152602660248201527f4f776e61626c653a206e6577206f776e657220697320746865207a65726f206160448201527f646472657373000000000000000000000000000000000000000000000000000060648201526084016108e3565b61177c81611f7d565b60008281526005602052604080822080547fffffffffffffffffffffffff0000000000000000000000000000000000000000166001600160a01b0387811691821790925591518593918516917f8c5be1e5ebec7d5bd14f71427d1e84f3dd0314c0f7b2291e5b200ac8c7c3b92591a4505050565b6000611c2d82611ecf565b80519091506000906001600160a01b0316336001600160a01b03161480611c64575033611c5984610995565b6001600160a01b0316145b80611c7657508151611c769033610759565b905080611caf576040517f59c896be00000000000000000000000000000000000000000000000000000000815260040160405180910390fd5b846001600160a01b031682600001516001600160a01b031614611cfe576040517fa114810000000000000000000000000000000000000000000000000000000000815260040160405180910390fd5b6001600160a01b038416611d3e576040517fea553b3400000000000000000000000000000000000000000000000000000000815260040160405180910390fd5b611d4e6000848460000151611bae565b6001600160a01b03858116600090815260046020908152604080832080546fffffffffffffffffffffffffffffffff198082166fffffffffffffffffffffffffffffffff928316600019018316179092558986168086528386208054938416938316600190810190931693909317909255888552600390935281842080546001600160e01b031916909117600160a01b4267ffffffffffffffff1602179055908601808352912054909116611e5557611e08816000541190565b15611e55578251600082815260036020908152604090912080549186015167ffffffffffffffff16600160a01b026001600160e01b03199092166001600160a01b03909316929092171790555b5082846001600160a01b0316866001600160a01b03167fddf252ad1be2c89b69c2b068fc378daa952ba7f163c4a11628f55a4df523b3ef60405160405180910390a45b5050505050565b600082611eac8584612219565b14949350505050565b6108ff828260405180602001604052806000815250612285565b6040805180820190915260008082526020820152611eee826000541190565b611f24576040517fdf2d9b4200000000000000000000000000000000000000000000000000000000815260040160405180910390fd5b815b6000818152600360209081526040918290208251808401909352546001600160a01b038116808452600160a01b90910467ffffffffffffffff169183019190915215611f73579392505050565b5060001901611f26565b600780546001600160a01b038381167fffffffffffffffffffffffff0000000000000000000000000000000000000000831681179093556040519116919082907f8be0079c531659141344cd1fd0a4f28419497f9722a3daafe3b4186f6b6457e090600090a35050565b60006001600160a01b0384163b156120db57604051630a85bd0160e11b81526001600160a01b0385169063150b7a029061202b903390899088908890600401612a98565b6020604051808303816000875af1925050508015612066575060408051601f3d908101601f1916820190925261206391810190612ad4565b60015b6120c1573d808015612094576040519150601f19603f3d011682016040523d82523d6000602084013e612099565b606091505b5080516120b9576040516368d2bf6b60e11b815260040160405180910390fd5b805181602001fd5b6001600160e01b031916630a85bd0160e11b1490506120df565b5060015b949350505050565b60608161212757505060408051808201909152600181527f3000000000000000000000000000000000000000000000000000000000000000602082015290565b8160005b8115612151578061213b816129ba565b915061214a9050600a83612990565b915061212b565b60008167ffffffffffffffff81111561216c5761216c6124f8565b6040519080825280601f01601f191660200182016040528015612196576020820181803683370190505b5090505b84156120df576121ab600183612af1565b91506121b8600a86612b08565b6121c390603061292d565b60f81b8183815181106121d8576121d86129a4565b60200101907effffffffffffffffffffffffffffffffffffffffffffffffffffffffffffff1916908160001a905350612212600a86612990565b945061219a565b600081815b845181101561141657600085828151811061223b5761223b6129a4565b602002602001015190508083116122615760008381526020829052604090209250612272565b600081815260208490526040902092505b508061227d816129ba565b91505061221e565b610aaf83838360016000546001600160a01b0385166122d0576040517f2e07630000000000000000000000000000000000000000000000000000000000815260040160405180910390fd5b83612307576040517fb562e8dd00000000000000000000000000000000000000000000000000000000815260040160405180910390fd5b6001600160a01b038516600081815260046020908152604080832080547001000000000000000000000000000000006fffffffffffffffffffffffffffffffff1982166fffffffffffffffffffffffffffffffff9283168c01831690811782900483168c01909216021790558483526003909152812080546001600160e01b031916909217600160a01b4267ffffffffffffffff16021790915581905b858110156124255760405182906001600160a01b038916906000907fddf252ad1be2c89b69c2b068fc378daa952ba7f163c4a11628f55a4df523b3ef908290a48380156123fb57506123f96000888488611fe7565b155b15612419576040516368d2bf6b60e11b815260040160405180910390fd5b600191820191016123a4565b50600055611e98565b82805461243a906128dc565b90600052602060002090601f01602090048101928261245c57600085556124a2565b82601f1061247557805160ff19168380011785556124a2565b828001600101855582156124a2579182015b828111156124a2578251825591602001919060010190612487565b506111639291505b8082111561116357600081556001016124aa565b6001600160e01b03198116811461177c57600080fd5b6000602082840312156124e657600080fd5b81356124f1816124be565b9392505050565b634e487b7160e01b600052604160045260246000fd5b604051601f8201601f1916810167ffffffffffffffff81118282101715612537576125376124f8565b604052919050565b600067ffffffffffffffff831115612559576125596124f8565b61256c601f8401601f191660200161250e565b905082815283838301111561258057600080fd5b828260208301376000602084830101529392505050565b6000602082840312156125a957600080fd5b813567ffffffffffffffff8111156125c057600080fd5b8201601f810184136125d157600080fd5b6120df8482356020840161253f565b60005b838110156125fb5781810151838201526020016125e3565b838111156118625750506000910152565b600081518084526126248160208601602086016125e0565b601f01601f19169290920160200192915050565b6020815260006124f1602083018461260c565b60006020828403121561265d57600080fd5b5035919050565b80356001600160a01b038116811461267b57600080fd5b919050565b6000806040838503121561269357600080fd5b61269c83612664565b946020939093013593505050565b6000806000606084860312156126bf57600080fd5b6126c884612664565b92506126d660208501612664565b9150604084013590509250925092565b600080604083850312156126f957600080fd5b823567ffffffffffffffff8082111561271157600080fd5b818501915085601f83011261272557600080fd5b8135602082821115612739576127396124f8565b8160051b925061274a81840161250e565b828152928401810192818101908985111561276457600080fd5b948201945b8486101561278257853582529482019490820190612769565b9997909101359750505050505050565b6000602082840312156127a457600080fd5b6124f182612664565b6020808252825182820181905260009190848201906040850190845b818110156127e5578351835292840192918401916001016127c9565b50909695505050505050565b6000806040838503121561280457600080fd5b61280d83612664565b91506020830135801515811461282257600080fd5b809150509250929050565b6000806000806080858703121561284357600080fd5b61284c85612664565b935061285a60208601612664565b925060408501359150606085013567ffffffffffffffff81111561287d57600080fd5b8501601f8101871361288e57600080fd5b61289d8782356020840161253f565b91505092959194509250565b600080604083850312156128bc57600080fd5b6128c583612664565b91506128d360208401612664565b90509250929050565b600181811c908216806128f057607f821691505b6020821081141561291157634e487b7160e01b600052602260045260246000fd5b50919050565b634e487b7160e01b600052601160045260246000fd5b6000821982111561294057612940612917565b500190565b600081600019048311821515161561295f5761295f612917565b500290565b634e487b7160e01b600052600160045260246000fd5b634e487b7160e01b600052601260045260246000fd5b60008261299f5761299f61297a565b500490565b634e487b7160e01b600052603260045260246000fd5b60006000198214156129ce576129ce612917565b5060010190565b600081516129e78185602086016125e0565b9290920192915050565b600080845481600182811c915080831680612a0d57607f831692505b6020808410821415612a2d57634e487b7160e01b86526022600452602486fd5b818015612a415760018114612a5257612a7f565b60ff19861689528489019650612a7f565b60008b81526020902060005b86811015612a775781548b820152908501908301612a5e565b505084890196505b505050505050612a8f81856129d5565b95945050505050565b60006001600160a01b03808716835280861660208401525083604083015260806060830152612aca608083018461260c565b9695505050505050565b600060208284031215612ae657600080fd5b81516124f1816124be565b600082821015612b0357612b03612917565b500390565b600082612b1757612b1761297a565b50069056fea2646970667358221220191f2abc7394c266d40304c200461a210cd786ddcc04d8d6277bda19a78fb80c64736f6c634300080b0033",
  "immutableReferences": {},
  "source": "// SPDX-License-Identifier: MIT\r\npragma solidity ^0.8.0;\r\n\r\nimport \"./ERC721A.sol\";\r\nimport \"@openzeppelin/contracts/access/Ownable.sol\";\r\nimport \"@openzeppelin/contracts/utils/cryptography/MerkleProof.sol\";\r\nimport \"@openzeppelin/contracts/utils/math/SafeMath.sol\";\r\n\r\ncontract ScareBears is ERC721A, Ownable{\r\n    // Name Scare Bears\r\n    // Ticker SCB\r\n    // Total supply 8888\r\n    // Max mint per addresss 3\r\n    // Public sale price .15E\r\n    // Whitelist sale price .14E\r\n    // Whitelist sale duration 3000 minters (up to 3 mints per user)\r\n    using Strings for uint256;\r\n    using SafeMath for uint256;\r\n\r\n    uint256 public maxSupply = 8888;\r\n    uint256 public constant MAX_WHITELIST_SUPPLY = 3000;\r\n    uint256 public constant MAX_MINT = 3;\r\n    uint256 public constant PUBLIC_SALE_PRICE = .15 ether;\r\n    uint256 public constant WHITELIST_SALE_PRICE = .14 ether;\r\n\r\n    string private baseTokenUri;\r\n    string public placeholderTokenUri;\r\n\r\n    //deploy smart contract, pause immediatly, unpause for WL, pause when WL done, toggle publicSale, unpause for public sale, \r\n    //2 days later toggle reveal\r\n    bool public isRevealed;\r\n    bool public publicSale;\r\n    bool public pause;\r\n\r\n    address public artistAddress;\r\n\r\n    bytes32 private merkleRoot;\r\n\r\n    mapping(address => uint256) public totalMint;\r\n\r\n    constructor() ERC721A(\"Scare Bears\", \"SCB\"){\r\n\r\n    }\r\n\r\n    modifier callerIsUser() {\r\n        require(tx.origin == msg.sender, \"Scare Bears :: Cannot be called by a contract\");\r\n        _;\r\n    }\r\n\r\n    function mint(uint256 _quantity) external payable callerIsUser{\r\n        require(!pause, \"Scare Bears :: Minting is on Pause\");\r\n        require(publicSale, \"Scare Bears :: Public sale is not yet activated, whitelist sale is still on going.\");\r\n        require((totalSupply() + _quantity) <= maxSupply, \"Scare Bears :: Cannot mint beyond max supply\");\r\n        require((totalMint[msg.sender] +_quantity) <= MAX_MINT, \"Scare Bears :: Already minted 3 times!\");\r\n        require(msg.value >= (PUBLIC_SALE_PRICE * _quantity), \"Scare Bears :: Payment is below the price\");\r\n\r\n        totalMint[msg.sender] += _quantity;\r\n        _safeMint(msg.sender, _quantity);\r\n    }\r\n\r\n    function whitelistMint(bytes32[] memory _merkleProof, uint256 _quantity) external payable callerIsUser{\r\n        bytes32 sender = keccak256(abi.encodePacked(msg.sender));\r\n        require(!pause, \"Scare Bears :: Minting is on Pause\");\r\n        require(!publicSale, \"Scare Bears :: Whitelist sale is over\");\r\n        require((totalSupply() + _quantity) <= maxSupply, \"Scare Bears :: Cannot mint beyond max supply\");\r\n        require((totalMint[msg.sender] + _quantity)  <= MAX_MINT, \"Scare Bears :: Cannot mint beyond whitelist max mint!\");\r\n        require(msg.value >= (WHITELIST_SALE_PRICE * _quantity), \"Scare Bears :: Payment is below the price\");\r\n        require(MerkleProof.verify(_merkleProof, merkleRoot, sender), \"Scare Bears :: You are not whitelisted\");\r\n\r\n        totalMint[msg.sender] += _quantity;\r\n        _safeMint(msg.sender, _quantity);\r\n    }\r\n\r\n    function _baseURI() internal view virtual override returns (string memory) {\r\n        return baseTokenUri;\r\n    }\r\n\r\n    function tokenURI(uint256 tokenId) public view virtual override returns (string memory) {\r\n        require(_exists(tokenId), \"ERC721Metadata: URI query for nonexistent token\");\r\n\r\n        if(!isRevealed){\r\n            return placeholderTokenUri;\r\n        }\r\n        //string memory baseURI = _baseURI();\r\n        return bytes(baseTokenUri).length > 0 ? string(abi.encodePacked(baseTokenUri, tokenId.toString())) : \"\";\r\n    }\r\n\r\n    /// @dev walletOf() function shouldn't be called on-chain due to gas consumption\r\n    function walletOf() external view returns(uint256[] memory){\r\n        address _owner = msg.sender;\r\n        uint256 numberOfOwnedNFT = balanceOf(_owner);\r\n        uint256[] memory ownerIds = new uint256[](numberOfOwnedNFT);\r\n\r\n        for(uint256 index = 0; index < numberOfOwnedNFT; index++){\r\n            ownerIds[index] = tokenOfOwnerByIndex(_owner, index);\r\n        }\r\n\r\n        return ownerIds;\r\n    }\r\n\r\n    function setTokenUri(string memory _baseTokenUri) external onlyOwner{\r\n        baseTokenUri = _baseTokenUri;\r\n    }\r\n    //setter function\r\n    function setMerkleRoot(bytes32 _merkleRoot) external onlyOwner{\r\n        merkleRoot = _merkleRoot;\r\n    }\r\n\r\n    //getter function \r\n    function getMerkleRoot() external view returns(bytes32){\r\n        return merkleRoot;\r\n    }\r\n\r\n    function setMaxSupply(uint256 _maxSupply) external onlyOwner{\r\n        maxSupply = _maxSupply;\r\n    }\r\n\r\n    function togglePause() external onlyOwner{\r\n        pause = !pause;\r\n    }\r\n\r\n    function toggleReveal() external onlyOwner{\r\n        isRevealed = !isRevealed;\r\n    }\r\n\r\n    function togglePublicSale() external onlyOwner{\r\n        publicSale = !publicSale; \r\n    }\r\n\r\n    function withdraw() external onlyOwner{\r\n        uint256 balance = address(this).balance;\r\n        payable(artistAddress).transfer(balance * 20 / 100);\r\n        payable(msg.sender).transfer(address(this).balance);\r\n    }\r\n}",
  "sourcePath": "C:\\REZAREKT-D\\Documents\\Projects\\Work\\Clients\\Scare Bears\\scarebears-contracts\\contracts\\ScareBears.sol",
  "compiler": {
    "name": "solc",
    "version": "0.8.11+commit.d7f03943.Emscripten.clang"
  },
  "schemaVersion": "3.4.3",
  "updatedAt": "2022-02-19T00:20:36.020Z",
  "networkType": "ethereum",
  "devdoc": {
    "kind": "dev",
    "methods": {
      "approve(address,uint256)": {
        "details": "See {IERC721-approve}."
      },
      "balanceOf(address)": {
        "details": "See {IERC721-balanceOf}."
      },
      "getApproved(uint256)": {
        "details": "See {IERC721-getApproved}."
      },
      "isApprovedForAll(address,address)": {
        "details": "See {IERC721-isApprovedForAll}."
      },
      "name()": {
        "details": "See {IERC721Metadata-name}."
      },
      "owner()": {
        "details": "Returns the address of the current owner."
      },
      "ownerOf(uint256)": {
        "details": "See {IERC721-ownerOf}."
      },
      "renounceOwnership()": {
        "details": "Leaves the contract without owner. It will not be possible to call `onlyOwner` functions anymore. Can only be called by the current owner. NOTE: Renouncing ownership will leave the contract without an owner, thereby removing any functionality that is only available to the owner."
      },
      "safeTransferFrom(address,address,uint256)": {
        "details": "See {IERC721-safeTransferFrom}."
      },
      "safeTransferFrom(address,address,uint256,bytes)": {
        "details": "See {IERC721-safeTransferFrom}."
      },
      "setApprovalForAll(address,bool)": {
        "details": "See {IERC721-setApprovalForAll}."
      },
      "supportsInterface(bytes4)": {
        "details": "See {IERC165-supportsInterface}."
      },
      "symbol()": {
        "details": "See {IERC721Metadata-symbol}."
      },
      "tokenByIndex(uint256)": {
        "details": "See {IERC721Enumerable-tokenByIndex}."
      },
      "tokenOfOwnerByIndex(address,uint256)": {
        "details": "See {IERC721Enumerable-tokenOfOwnerByIndex}. This read function is O(totalSupply). If calling from a separate contract, be sure to test gas first. It may also degrade with extremely large collection sizes (e.g >> 10000), test for your use case."
      },
      "tokenURI(uint256)": {
        "details": "See {IERC721Metadata-tokenURI}."
      },
      "totalSupply()": {
        "details": "See {IERC721Enumerable-totalSupply}."
      },
      "transferFrom(address,address,uint256)": {
        "details": "See {IERC721-transferFrom}."
      },
      "transferOwnership(address)": {
        "details": "Transfers ownership of the contract to a new account (`newOwner`). Can only be called by the current owner."
      },
      "walletOf()": {
        "details": "walletOf() function shouldn't be called on-chain due to gas consumption"
      }
    },
    "version": 1
  },
  "userdoc": {
    "kind": "user",
    "methods": {},
    "version": 1
  }
}