{
  "contractName": "SquareBears",
  "abi": [
    {
      "inputs": [],
      "stateMutability": "nonpayable",
      "type": "constructor"
    },
    {
      "inputs": [],
      "name": "ApprovalCallerNotOwnerNorApproved",
      "type": "error"
    },
    {
      "inputs": [],
      "name": "ApprovalQueryForNonexistentToken",
      "type": "error"
    },
    {
      "inputs": [],
      "name": "ApprovalToCurrentOwner",
      "type": "error"
    },
    {
      "inputs": [],
      "name": "ApproveToCaller",
      "type": "error"
    },
    {
      "inputs": [],
      "name": "BalanceQueryForZeroAddress",
      "type": "error"
    },
    {
      "inputs": [],
      "name": "MintToZeroAddress",
      "type": "error"
    },
    {
      "inputs": [],
      "name": "MintZeroQuantity",
      "type": "error"
    },
    {
      "inputs": [],
      "name": "OwnerIndexOutOfBounds",
      "type": "error"
    },
    {
      "inputs": [],
      "name": "OwnerQueryForNonexistentToken",
      "type": "error"
    },
    {
      "inputs": [],
      "name": "TokenIndexOutOfBounds",
      "type": "error"
    },
    {
      "inputs": [],
      "name": "TransferCallerNotOwnerNorApproved",
      "type": "error"
    },
    {
      "inputs": [],
      "name": "TransferFromIncorrectOwner",
      "type": "error"
    },
    {
      "inputs": [],
      "name": "TransferToNonERC721ReceiverImplementer",
      "type": "error"
    },
    {
      "inputs": [],
      "name": "TransferToZeroAddress",
      "type": "error"
    },
    {
      "inputs": [],
      "name": "UnableDetermineTokenOwner",
      "type": "error"
    },
    {
      "anonymous": false,
      "inputs": [
        {
          "indexed": true,
          "internalType": "address",
          "name": "owner",
          "type": "address"
        },
        {
          "indexed": true,
          "internalType": "address",
          "name": "approved",
          "type": "address"
        },
        {
          "indexed": true,
          "internalType": "uint256",
          "name": "tokenId",
          "type": "uint256"
        }
      ],
      "name": "Approval",
      "type": "event"
    },
    {
      "anonymous": false,
      "inputs": [
        {
          "indexed": true,
          "internalType": "address",
          "name": "owner",
          "type": "address"
        },
        {
          "indexed": true,
          "internalType": "address",
          "name": "operator",
          "type": "address"
        },
        {
          "indexed": false,
          "internalType": "bool",
          "name": "approved",
          "type": "bool"
        }
      ],
      "name": "ApprovalForAll",
      "type": "event"
    },
    {
      "anonymous": false,
      "inputs": [
        {
          "indexed": true,
          "internalType": "address",
          "name": "previousOwner",
          "type": "address"
        },
        {
          "indexed": true,
          "internalType": "address",
          "name": "newOwner",
          "type": "address"
        }
      ],
      "name": "OwnershipTransferred",
      "type": "event"
    },
    {
      "anonymous": false,
      "inputs": [
        {
          "indexed": true,
          "internalType": "address",
          "name": "from",
          "type": "address"
        },
        {
          "indexed": true,
          "internalType": "address",
          "name": "to",
          "type": "address"
        },
        {
          "indexed": true,
          "internalType": "uint256",
          "name": "tokenId",
          "type": "uint256"
        }
      ],
      "name": "Transfer",
      "type": "event"
    },
    {
      "inputs": [],
      "name": "MAX_PUBLIC_MINT",
      "outputs": [
        {
          "internalType": "uint256",
          "name": "",
          "type": "uint256"
        }
      ],
      "stateMutability": "view",
      "type": "function",
      "constant": true
    },
    {
      "inputs": [],
      "name": "MAX_SUPPLY",
      "outputs": [
        {
          "internalType": "uint256",
          "name": "",
          "type": "uint256"
        }
      ],
      "stateMutability": "view",
      "type": "function",
      "constant": true
    },
    {
      "inputs": [],
      "name": "MAX_WHITELIST_MINT",
      "outputs": [
        {
          "internalType": "uint256",
          "name": "",
          "type": "uint256"
        }
      ],
      "stateMutability": "view",
      "type": "function",
      "constant": true
    },
    {
      "inputs": [],
      "name": "MAX_WHITELIST_SUPPLY",
      "outputs": [
        {
          "internalType": "uint256",
          "name": "",
          "type": "uint256"
        }
      ],
      "stateMutability": "view",
      "type": "function",
      "constant": true
    },
    {
      "inputs": [],
      "name": "PUBLIC_SALE_PRICE",
      "outputs": [
        {
          "internalType": "uint256",
          "name": "",
          "type": "uint256"
        }
      ],
      "stateMutability": "view",
      "type": "function",
      "constant": true
    },
    {
      "inputs": [],
      "name": "WHITELIST_SALE_PRICE",
      "outputs": [
        {
          "internalType": "uint256",
          "name": "",
          "type": "uint256"
        }
      ],
      "stateMutability": "view",
      "type": "function",
      "constant": true
    },
    {
      "inputs": [
        {
          "internalType": "address",
          "name": "to",
          "type": "address"
        },
        {
          "internalType": "uint256",
          "name": "tokenId",
          "type": "uint256"
        }
      ],
      "name": "approve",
      "outputs": [],
      "stateMutability": "nonpayable",
      "type": "function"
    },
    {
      "inputs": [
        {
          "internalType": "address",
          "name": "owner",
          "type": "address"
        }
      ],
      "name": "balanceOf",
      "outputs": [
        {
          "internalType": "uint256",
          "name": "",
          "type": "uint256"
        }
      ],
      "stateMutability": "view",
      "type": "function",
      "constant": true
    },
    {
      "inputs": [
        {
          "internalType": "uint256",
          "name": "tokenId",
          "type": "uint256"
        }
      ],
      "name": "getApproved",
      "outputs": [
        {
          "internalType": "address",
          "name": "",
          "type": "address"
        }
      ],
      "stateMutability": "view",
      "type": "function",
      "constant": true
    },
    {
      "inputs": [
        {
          "internalType": "address",
          "name": "owner",
          "type": "address"
        },
        {
          "internalType": "address",
          "name": "operator",
          "type": "address"
        }
      ],
      "name": "isApprovedForAll",
      "outputs": [
        {
          "internalType": "bool",
          "name": "",
          "type": "bool"
        }
      ],
      "stateMutability": "view",
      "type": "function",
      "constant": true
    },
    {
      "inputs": [],
      "name": "isRevealed",
      "outputs": [
        {
          "internalType": "bool",
          "name": "",
          "type": "bool"
        }
      ],
      "stateMutability": "view",
      "type": "function",
      "constant": true
    },
    {
      "inputs": [],
      "name": "name",
      "outputs": [
        {
          "internalType": "string",
          "name": "",
          "type": "string"
        }
      ],
      "stateMutability": "view",
      "type": "function",
      "constant": true
    },
    {
      "inputs": [],
      "name": "owner",
      "outputs": [
        {
          "internalType": "address",
          "name": "",
          "type": "address"
        }
      ],
      "stateMutability": "view",
      "type": "function",
      "constant": true
    },
    {
      "inputs": [
        {
          "internalType": "uint256",
          "name": "tokenId",
          "type": "uint256"
        }
      ],
      "name": "ownerOf",
      "outputs": [
        {
          "internalType": "address",
          "name": "",
          "type": "address"
        }
      ],
      "stateMutability": "view",
      "type": "function",
      "constant": true
    },
    {
      "inputs": [],
      "name": "pause",
      "outputs": [
        {
          "internalType": "bool",
          "name": "",
          "type": "bool"
        }
      ],
      "stateMutability": "view",
      "type": "function",
      "constant": true
    },
    {
      "inputs": [],
      "name": "placeholderTokenUri",
      "outputs": [
        {
          "internalType": "string",
          "name": "",
          "type": "string"
        }
      ],
      "stateMutability": "view",
      "type": "function",
      "constant": true
    },
    {
      "inputs": [],
      "name": "publicSale",
      "outputs": [
        {
          "internalType": "bool",
          "name": "",
          "type": "bool"
        }
      ],
      "stateMutability": "view",
      "type": "function",
      "constant": true
    },
    {
      "inputs": [],
      "name": "renounceOwnership",
      "outputs": [],
      "stateMutability": "nonpayable",
      "type": "function"
    },
    {
      "inputs": [
        {
          "internalType": "address",
          "name": "from",
          "type": "address"
        },
        {
          "internalType": "address",
          "name": "to",
          "type": "address"
        },
        {
          "internalType": "uint256",
          "name": "tokenId",
          "type": "uint256"
        }
      ],
      "name": "safeTransferFrom",
      "outputs": [],
      "stateMutability": "nonpayable",
      "type": "function"
    },
    {
      "inputs": [
        {
          "internalType": "address",
          "name": "from",
          "type": "address"
        },
        {
          "internalType": "address",
          "name": "to",
          "type": "address"
        },
        {
          "internalType": "uint256",
          "name": "tokenId",
          "type": "uint256"
        },
        {
          "internalType": "bytes",
          "name": "_data",
          "type": "bytes"
        }
      ],
      "name": "safeTransferFrom",
      "outputs": [],
      "stateMutability": "nonpayable",
      "type": "function"
    },
    {
      "inputs": [
        {
          "internalType": "address",
          "name": "operator",
          "type": "address"
        },
        {
          "internalType": "bool",
          "name": "approved",
          "type": "bool"
        }
      ],
      "name": "setApprovalForAll",
      "outputs": [],
      "stateMutability": "nonpayable",
      "type": "function"
    },
    {
      "inputs": [
        {
          "internalType": "bytes4",
          "name": "interfaceId",
          "type": "bytes4"
        }
      ],
      "name": "supportsInterface",
      "outputs": [
        {
          "internalType": "bool",
          "name": "",
          "type": "bool"
        }
      ],
      "stateMutability": "view",
      "type": "function",
      "constant": true
    },
    {
      "inputs": [],
      "name": "symbol",
      "outputs": [
        {
          "internalType": "string",
          "name": "",
          "type": "string"
        }
      ],
      "stateMutability": "view",
      "type": "function",
      "constant": true
    },
    {
      "inputs": [],
      "name": "teamMinted",
      "outputs": [
        {
          "internalType": "bool",
          "name": "",
          "type": "bool"
        }
      ],
      "stateMutability": "view",
      "type": "function",
      "constant": true
    },
    {
      "inputs": [
        {
          "internalType": "uint256",
          "name": "index",
          "type": "uint256"
        }
      ],
      "name": "tokenByIndex",
      "outputs": [
        {
          "internalType": "uint256",
          "name": "",
          "type": "uint256"
        }
      ],
      "stateMutability": "view",
      "type": "function",
      "constant": true
    },
    {
      "inputs": [
        {
          "internalType": "address",
          "name": "owner",
          "type": "address"
        },
        {
          "internalType": "uint256",
          "name": "index",
          "type": "uint256"
        }
      ],
      "name": "tokenOfOwnerByIndex",
      "outputs": [
        {
          "internalType": "uint256",
          "name": "",
          "type": "uint256"
        }
      ],
      "stateMutability": "view",
      "type": "function",
      "constant": true
    },
    {
      "inputs": [
        {
          "internalType": "address",
          "name": "",
          "type": "address"
        }
      ],
      "name": "totalPublicMint",
      "outputs": [
        {
          "internalType": "uint256",
          "name": "",
          "type": "uint256"
        }
      ],
      "stateMutability": "view",
      "type": "function",
      "constant": true
    },
    {
      "inputs": [],
      "name": "totalSupply",
      "outputs": [
        {
          "internalType": "uint256",
          "name": "",
          "type": "uint256"
        }
      ],
      "stateMutability": "view",
      "type": "function",
      "constant": true
    },
    {
      "inputs": [
        {
          "internalType": "address",
          "name": "",
          "type": "address"
        }
      ],
      "name": "totalWhitelistMint",
      "outputs": [
        {
          "internalType": "uint256",
          "name": "",
          "type": "uint256"
        }
      ],
      "stateMutability": "view",
      "type": "function",
      "constant": true
    },
    {
      "inputs": [
        {
          "internalType": "address",
          "name": "from",
          "type": "address"
        },
        {
          "internalType": "address",
          "name": "to",
          "type": "address"
        },
        {
          "internalType": "uint256",
          "name": "tokenId",
          "type": "uint256"
        }
      ],
      "name": "transferFrom",
      "outputs": [],
      "stateMutability": "nonpayable",
      "type": "function"
    },
    {
      "inputs": [
        {
          "internalType": "address",
          "name": "newOwner",
          "type": "address"
        }
      ],
      "name": "transferOwnership",
      "outputs": [],
      "stateMutability": "nonpayable",
      "type": "function"
    },
    {
      "inputs": [],
      "name": "whiteListSale",
      "outputs": [
        {
          "internalType": "bool",
          "name": "",
          "type": "bool"
        }
      ],
      "stateMutability": "view",
      "type": "function",
      "constant": true
    },
    {
      "inputs": [
        {
          "internalType": "uint256",
          "name": "_quantity",
          "type": "uint256"
        }
      ],
      "name": "mint",
      "outputs": [],
      "stateMutability": "payable",
      "type": "function",
      "payable": true
    },
    {
      "inputs": [
        {
          "internalType": "bytes32[]",
          "name": "_merkleProof",
          "type": "bytes32[]"
        },
        {
          "internalType": "uint256",
          "name": "_quantity",
          "type": "uint256"
        }
      ],
      "name": "whitelistMint",
      "outputs": [],
      "stateMutability": "payable",
      "type": "function",
      "payable": true
    },
    {
      "inputs": [],
      "name": "teamMint",
      "outputs": [],
      "stateMutability": "nonpayable",
      "type": "function"
    },
    {
      "inputs": [
        {
          "internalType": "uint256",
          "name": "tokenId",
          "type": "uint256"
        }
      ],
      "name": "tokenURI",
      "outputs": [
        {
          "internalType": "string",
          "name": "",
          "type": "string"
        }
      ],
      "stateMutability": "view",
      "type": "function",
      "constant": true
    },
    {
      "inputs": [],
      "name": "walletOf",
      "outputs": [
        {
          "internalType": "uint256[]",
          "name": "",
          "type": "uint256[]"
        }
      ],
      "stateMutability": "view",
      "type": "function",
      "constant": true
    },
    {
      "inputs": [
        {
          "internalType": "string",
          "name": "_baseTokenUri",
          "type": "string"
        }
      ],
      "name": "setTokenUri",
      "outputs": [],
      "stateMutability": "nonpayable",
      "type": "function"
    },
    {
      "inputs": [
        {
          "internalType": "string",
          "name": "_placeholderTokenUri",
          "type": "string"
        }
      ],
      "name": "setPlaceHolderUri",
      "outputs": [],
      "stateMutability": "nonpayable",
      "type": "function"
    },
    {
      "inputs": [
        {
          "internalType": "bytes32",
          "name": "_merkleRoot",
          "type": "bytes32"
        }
      ],
      "name": "setMerkleRoot",
      "outputs": [],
      "stateMutability": "nonpayable",
      "type": "function"
    },
    {
      "inputs": [],
      "name": "getMerkleRoot",
      "outputs": [
        {
          "internalType": "bytes32",
          "name": "",
          "type": "bytes32"
        }
      ],
      "stateMutability": "view",
      "type": "function",
      "constant": true
    },
    {
      "inputs": [],
      "name": "togglePause",
      "outputs": [],
      "stateMutability": "nonpayable",
      "type": "function"
    },
    {
      "inputs": [],
      "name": "toggleWhiteListSale",
      "outputs": [],
      "stateMutability": "nonpayable",
      "type": "function"
    },
    {
      "inputs": [],
      "name": "togglePublicSale",
      "outputs": [],
      "stateMutability": "nonpayable",
      "type": "function"
    },
    {
      "inputs": [],
      "name": "toggleReveal",
      "outputs": [],
      "stateMutability": "nonpayable",
      "type": "function"
    },
    {
      "inputs": [],
      "name": "withdraw",
      "outputs": [],
      "stateMutability": "nonpayable",
      "type": "function"
    }
  ],
  "bytecode": "0x60806040523480156200001157600080fd5b50604080518082018252600c81526b53717561726520426561727360a01b60208083019182528351808501909452600384526229a8a160e91b9084015281519192916200006191600191620000f0565b50805162000077906002906020840190620000f0565b505050620000946200008e6200009a60201b60201c565b6200009e565b620001d3565b3390565b600780546001600160a01b038381166001600160a01b0319831681179093556040519116919082907f8be0079c531659141344cd1fd0a4f28419497f9722a3daafe3b4186f6b6457e090600090a35050565b828054620000fe9062000196565b90600052602060002090601f0160209004810192826200012257600085556200016d565b82601f106200013d57805160ff19168380011785556200016d565b828001600101855582156200016d579182015b828111156200016d57825182559160200191906001019062000150565b506200017b9291506200017f565b5090565b5b808211156200017b576000815560010162000180565b600181811c90821680620001ab57607f821691505b60208210811415620001cd57634e487b7160e01b600052602260045260246000fd5b50919050565b612d6780620001e36000396000f3fe6080604052600436106102fd5760003560e01c806370a082311161018f578063af2d4f14116100e1578063c4ae31681161008a578063e8b5498d11610064578063e8b5498d146107f0578063e985e9c514610812578063f2fde38b1461085b57600080fd5b8063c4ae3168146107a6578063c87b56dd146107bb578063e222c7f9146107db57600080fd5b8063ba7a86b8116100bb578063ba7a86b814610760578063bc912e1a14610775578063c08dfd3c1461079157600080fd5b8063af2d4f141461070a578063b0962c5314610720578063b88d4fde1461074057600080fd5b806386a173ee1161014357806395d89b411161011d57806395d89b41146106c2578063a0712d68146106d7578063a22cb465146106ea57600080fd5b806386a173ee1461066f5780638bb64a8c1461068f5780638da5cb5b146106a457600080fd5b80637cb64759116101745780637cb647591461060c57806383a974a21461062c5780638456cb591461064e57600080fd5b806370a08231146105d7578063715018a6146105f757600080fd5b80632f745c59116102535780634cf5f7a4116101fc5780635b8ad429116101d65780635b8ad4291461058d5780636352211e146105a257806365f13097146105c257600080fd5b80634cf5f7a41461053e5780634f6ccce71461055357806354214f691461057357600080fd5b80633ccfd60b1161022d5780633ccfd60b146104f457806342842e0e14610509578063495906571461052957600080fd5b80632f745c591461049f57806332cb6b0c146104bf57806333bc1c5c146104d557600080fd5b8063081812fc116102b55780631c16521c1161028f5780631c16521c1461043f57806323b872dd1461046c5780632904e6d91461048c57600080fd5b8063081812fc146103d2578063095ea7b31461040a57806318160ddd1461042a57600080fd5b80630675b7c6116102e65780630675b7c61461037257806306fdde031461039457806307e89ec0146103b657600080fd5b806301ffc9a7146103025780630345e3cb14610337575b600080fd5b34801561030e57600080fd5b5061032261031d3660046126bd565b61087b565b60405190151581526020015b60405180910390f35b34801561034357600080fd5b506103646103523660046126fd565b600d6020526000908152604090205481565b60405190815260200161032e565b34801561037e57600080fd5b5061039261038d3660046127b7565b61094c565b005b3480156103a057600080fd5b506103a96109c2565b60405161032e9190612858565b3480156103c257600080fd5b5061036467015fb7f9b8c3800081565b3480156103de57600080fd5b506103f26103ed36600461286b565b610a54565b6040516001600160a01b03909116815260200161032e565b34801561041657600080fd5b50610392610425366004612884565b610ab3565b34801561043657600080fd5b50600054610364565b34801561044b57600080fd5b5061036461045a3660046126fd565b600c6020526000908152604090205481565b34801561047857600080fd5b506103926104873660046128ae565b610b73565b61039261049a3660046128ea565b610b7e565b3480156104ab57600080fd5b506103646104ba366004612884565b610f0f565b3480156104cb57600080fd5b50610364611a0981565b3480156104e157600080fd5b50600a5461032290610100900460ff1681565b34801561050057600080fd5b50610392610ffd565b34801561051557600080fd5b506103926105243660046128ae565b6111b5565b34801561053557600080fd5b50600b54610364565b34801561054a57600080fd5b506103a96111d0565b34801561055f57600080fd5b5061036461056e36600461286b565b61125e565b34801561057f57600080fd5b50600a546103229060ff1681565b34801561059957600080fd5b5061039261129e565b3480156105ae57600080fd5b506103f26105bd36600461286b565b61130c565b3480156105ce57600080fd5b50610364600a81565b3480156105e357600080fd5b506103646105f23660046126fd565b61131e565b34801561060357600080fd5b5061039261138e565b34801561061857600080fd5b5061039261062736600461286b565b6113f4565b34801561063857600080fd5b50610641611453565b60405161032e9190612996565b34801561065a57600080fd5b50600a54610322906301000000900460ff1681565b34801561067b57600080fd5b50600a546103229062010000900460ff1681565b34801561069b57600080fd5b506103926114f6565b3480156106b057600080fd5b506007546001600160a01b03166103f2565b3480156106ce57600080fd5b506103a961156f565b6103926106e536600461286b565b61157e565b3480156106f657600080fd5b506103926107053660046129da565b6117fa565b34801561071657600080fd5b50610364610c1c81565b34801561072c57600080fd5b5061039261073b3660046127b7565b6118a9565b34801561074c57600080fd5b5061039261075b366004612a16565b611916565b34801561076c57600080fd5b5061039261194a565b34801561078157600080fd5b5061036467011bdca06d8dc00081565b34801561079d57600080fd5b50610364600381565b3480156107b257600080fd5b50610392611a45565b3480156107c757600080fd5b506103a96107d636600461286b565b611ac0565b3480156107e757600080fd5b50610392611c41565b3480156107fc57600080fd5b50600a5461032290640100000000900460ff1681565b34801561081e57600080fd5b5061032261082d366004612a92565b6001600160a01b03918216600090815260066020908152604080832093909416825291909152205460ff1690565b34801561086757600080fd5b506103926108763660046126fd565b611cb8565b60006001600160e01b031982167f80ac58cd0000000000000000000000000000000000000000000000000000000014806108de57506001600160e01b031982167f5b5e139f00000000000000000000000000000000000000000000000000000000145b8061091257506001600160e01b031982167f780e9d6300000000000000000000000000000000000000000000000000000000145b8061094657507f01ffc9a7000000000000000000000000000000000000000000000000000000006001600160e01b03198316145b92915050565b6007546001600160a01b031633146109ab5760405162461bcd60e51b815260206004820181905260248201527f4f776e61626c653a2063616c6c6572206973206e6f7420746865206f776e657260448201526064015b60405180910390fd5b80516109be906008906020840190612617565b5050565b6060600180546109d190612ac5565b80601f01602080910402602001604051908101604052809291908181526020018280546109fd90612ac5565b8015610a4a5780601f10610a1f57610100808354040283529160200191610a4a565b820191906000526020600020905b815481529060010190602001808311610a2d57829003601f168201915b5050505050905090565b6000610a61826000541190565b610a97576040517fcf4700e400000000000000000000000000000000000000000000000000000000815260040160405180910390fd5b506000908152600560205260409020546001600160a01b031690565b6000610abe8261130c565b9050806001600160a01b0316836001600160a01b03161415610b0c576040517f943f7b8c00000000000000000000000000000000000000000000000000000000815260040160405180910390fd5b336001600160a01b03821614801590610b2c5750610b2a813361082d565b155b15610b63576040517fcfb3b94200000000000000000000000000000000000000000000000000000000815260040160405180910390fd5b610b6e838383611d97565b505050565b610b6e838383611e0b565b323314610bf35760405162461bcd60e51b815260206004820152602e60248201527f537175617265204265617273203a3a2043616e6e6f742062652063616c6c656460448201527f206279206120636f6e747261637400000000000000000000000000000000000060648201526084016109a2565b600a5462010000900460ff16610c715760405162461bcd60e51b815260206004820152602360248201527f537175617265204265617273203a3a204d696e74696e67206973206f6e20506160448201527f757365000000000000000000000000000000000000000000000000000000000060648201526084016109a2565b611a0981610c7e60005490565b610c889190612b16565b1115610cfc5760405162461bcd60e51b815260206004820152602d60248201527f537175617265204265617273203a3a2043616e6e6f74206d696e74206265796f60448201527f6e64206d617820737570706c790000000000000000000000000000000000000060648201526084016109a2565b336000908152600d6020526040902054600390610d1a908390612b16565b1115610d8e5760405162461bcd60e51b815260206004820152603660248201527f537175617265204265617273203a3a2043616e6e6f74206d696e74206265796f60448201527f6e642077686974656c697374206d6178206d696e74210000000000000000000060648201526084016109a2565b610da08167011bdca06d8dc000612b2e565b341015610e155760405162461bcd60e51b815260206004820152602a60248201527f537175617265204265617273203a3a205061796d656e742069732062656c6f7760448201527f207468652070726963650000000000000000000000000000000000000000000060648201526084016109a2565b6040517fffffffffffffffffffffffffffffffffffffffff0000000000000000000000003360601b166020820152600090603401604051602081830303815290604052805190602001209050610e6e83600b5483612088565b610ee05760405162461bcd60e51b815260206004820152602760248201527f537175617265204265617273203a3a20596f7520617265206e6f74207768697460448201527f656c69737465640000000000000000000000000000000000000000000000000060648201526084016109a2565b336000908152600d602052604081208054849290610eff908490612b16565b90915550610b6e9050338361209e565b6000610f1a8361131e565b8210610f52576040517f0ddac30e00000000000000000000000000000000000000000000000000000000815260040160405180910390fd5b600080549080805b83811015610feb576000818152600360209081526040918290208251808401909352546001600160a01b038116808452600160a01b90910467ffffffffffffffff169183019190915215610fad57805192505b876001600160a01b0316836001600160a01b03161415610fe25786841415610fdb5750935061094692505050565b6001909301925b50600101610f5a565b50610ff4612b4d565b50505092915050565b6007546001600160a01b031633146110575760405162461bcd60e51b815260206004820181905260248201527f4f776e61626c653a2063616c6c6572206973206e6f7420746865206f776e657260448201526064016109a2565b60006064611066476023612b2e565b6110709190612b79565b9050600060646110808347612b8d565b61108b906014612b2e565b6110959190612b79565b9050600060646110a58447612b8d565b6110b0906005612b2e565b6110ba9190612b79565b60405190915073f70ce6c33687fcb68b823858766ae515d49289459084156108fc029085906000818181858888f193505050501580156110fe573d6000803e3d6000fd5b5060405173c44146197386b2b23c11ffbb37d91a004f5bd8299083156108fc029084906000818181858888f19350505050158015611140573d6000803e3d6000fd5b5060405173bd584ce590b7dcdbb93b11e095d9e1d5880b44d99082156108fc029083906000818181858888f19350505050158015611182573d6000803e3d6000fd5b5060405133904780156108fc02916000818181858888f193505050501580156111af573d6000803e3d6000fd5b50505050565b610b6e83838360405180602001604052806000815250611916565b600980546111dd90612ac5565b80601f016020809104026020016040519081016040528092919081815260200182805461120990612ac5565b80156112565780601f1061122b57610100808354040283529160200191611256565b820191906000526020600020905b81548152906001019060200180831161123957829003601f168201915b505050505081565b60008054821061129a576040517fa723001c00000000000000000000000000000000000000000000000000000000815260040160405180910390fd5b5090565b6007546001600160a01b031633146112f85760405162461bcd60e51b815260206004820181905260248201527f4f776e61626c653a2063616c6c6572206973206e6f7420746865206f776e657260448201526064016109a2565b600a805460ff19811660ff90911615179055565b6000611317826120b8565b5192915050565b60006001600160a01b038216611360576040517f8f4eb60400000000000000000000000000000000000000000000000000000000815260040160405180910390fd5b506001600160a01b03166000908152600460205260409020546fffffffffffffffffffffffffffffffff1690565b6007546001600160a01b031633146113e85760405162461bcd60e51b815260206004820181905260248201527f4f776e61626c653a2063616c6c6572206973206e6f7420746865206f776e657260448201526064016109a2565b6113f26000612166565b565b6007546001600160a01b0316331461144e5760405162461bcd60e51b815260206004820181905260248201527f4f776e61626c653a2063616c6c6572206973206e6f7420746865206f776e657260448201526064016109a2565b600b55565b60603360006114618261131e565b905060008167ffffffffffffffff81111561147e5761147e612718565b6040519080825280602002602001820160405280156114a7578160200160208202803683370190505b50905060005b828110156114ee576114bf8482610f0f565b8282815181106114d1576114d1612ba4565b6020908102919091010152806114e681612bba565b9150506114ad565b509392505050565b6007546001600160a01b031633146115505760405162461bcd60e51b815260206004820181905260248201527f4f776e61626c653a2063616c6c6572206973206e6f7420746865206f776e657260448201526064016109a2565b600a805462ff0000198116620100009182900460ff1615909102179055565b6060600280546109d190612ac5565b3233146115f35760405162461bcd60e51b815260206004820152602e60248201527f537175617265204265617273203a3a2043616e6e6f742062652063616c6c656460448201527f206279206120636f6e747261637400000000000000000000000000000000000060648201526084016109a2565b600a54610100900460ff1661164a5760405162461bcd60e51b815260206004820152601f60248201527f537175617265204265617273203a3a204e6f7420596574204163746976652e0060448201526064016109a2565b611a098161165760005490565b6116619190612b16565b11156116d55760405162461bcd60e51b815260206004820152602160248201527f537175617265204265617273203a3a204265796f6e64204d617820537570706c60448201527f790000000000000000000000000000000000000000000000000000000000000060648201526084016109a2565b336000908152600c6020526040902054600a906116f3908390612b16565b11156117675760405162461bcd60e51b815260206004820152602760248201527f537175617265204265617273203a3a20416c7265616479206d696e746564203360448201527f2074696d6573210000000000000000000000000000000000000000000000000060648201526084016109a2565b6117798167015fb7f9b8c38000612b2e565b3410156117c85760405162461bcd60e51b815260206004820152601660248201527f537175617265204265617273203a3a2042656c6f77200000000000000000000060448201526064016109a2565b336000908152600c6020526040812080548392906117e7908490612b16565b909155506117f79050338261209e565b50565b6001600160a01b03821633141561183d576040517fb06307db00000000000000000000000000000000000000000000000000000000815260040160405180910390fd5b3360008181526006602090815260408083206001600160a01b03871680855290835292819020805460ff191686151590811790915590519081529192917f17307eab39ab6107e8899845ad3d59bd9653f200f220920489ca2b5937696c31910160405180910390a35050565b6007546001600160a01b031633146119035760405162461bcd60e51b815260206004820181905260248201527f4f776e61626c653a2063616c6c6572206973206e6f7420746865206f776e657260448201526064016109a2565b80516109be906009906020840190612617565b611921848484611e0b565b61192d848484846121d0565b6111af576040516368d2bf6b60e11b815260040160405180910390fd5b6007546001600160a01b031633146119a45760405162461bcd60e51b815260206004820181905260248201527f4f776e61626c653a2063616c6c6572206973206e6f7420746865206f776e657260448201526064016109a2565b600a54640100000000900460ff1615611a255760405162461bcd60e51b815260206004820152602360248201527f537175617265204265617273203a3a205465616d20616c7265616479206d696e60448201527f746564000000000000000000000000000000000000000000000000000000000060648201526084016109a2565b600a805464ff0000000019166401000000001790556113f23360c861209e565b6007546001600160a01b03163314611a9f5760405162461bcd60e51b815260206004820181905260248201527f4f776e61626c653a2063616c6c6572206973206e6f7420746865206f776e657260448201526064016109a2565b600a805463ff00000019811663010000009182900460ff1615909102179055565b6060611acd826000541190565b611b3f5760405162461bcd60e51b815260206004820152602f60248201527f4552433732314d657461646174613a2055524920717565727920666f72206e6f60448201527f6e6578697374656e7420746f6b656e000000000000000000000000000000000060648201526084016109a2565b600a5460ff16611bdb5760098054611b5690612ac5565b80601f0160208091040260200160405190810160405280929190818152602001828054611b8290612ac5565b8015611bcf5780601f10611ba457610100808354040283529160200191611bcf565b820191906000526020600020905b815481529060010190602001808311611bb257829003601f168201915b50505050509050919050565b600060088054611bea90612ac5565b905011611c065760405180602001604052806000815250610946565b6008611c1b611c16846001612b16565b6122d0565b604051602001611c2c929190612bf1565b60405160208183030381529060405292915050565b6007546001600160a01b03163314611c9b5760405162461bcd60e51b815260206004820181905260248201527f4f776e61626c653a2063616c6c6572206973206e6f7420746865206f776e657260448201526064016109a2565b600a805461ff001981166101009182900460ff1615909102179055565b6007546001600160a01b03163314611d125760405162461bcd60e51b815260206004820181905260248201527f4f776e61626c653a2063616c6c6572206973206e6f7420746865206f776e657260448201526064016109a2565b6001600160a01b038116611d8e5760405162461bcd60e51b815260206004820152602660248201527f4f776e61626c653a206e6577206f776e657220697320746865207a65726f206160448201527f646472657373000000000000000000000000000000000000000000000000000060648201526084016109a2565b6117f781612166565b60008281526005602052604080822080547fffffffffffffffffffffffff0000000000000000000000000000000000000000166001600160a01b0387811691821790925591518593918516917f8c5be1e5ebec7d5bd14f71427d1e84f3dd0314c0f7b2291e5b200ac8c7c3b92591a4505050565b6000611e16826120b8565b80519091506000906001600160a01b0316336001600160a01b03161480611e4d575033611e4284610a54565b6001600160a01b0316145b80611e5f57508151611e5f903361082d565b905080611e98576040517f59c896be00000000000000000000000000000000000000000000000000000000815260040160405180910390fd5b846001600160a01b031682600001516001600160a01b031614611ee7576040517fa114810000000000000000000000000000000000000000000000000000000000815260040160405180910390fd5b6001600160a01b038416611f27576040517fea553b3400000000000000000000000000000000000000000000000000000000815260040160405180910390fd5b611f376000848460000151611d97565b6001600160a01b03858116600090815260046020908152604080832080546fffffffffffffffffffffffffffffffff198082166fffffffffffffffffffffffffffffffff928316600019018316179092558986168086528386208054938416938316600190810190931693909317909255888552600390935281842080546001600160e01b031916909117600160a01b4267ffffffffffffffff160217905590860180835291205490911661203e57611ff1816000541190565b1561203e578251600082815260036020908152604090912080549186015167ffffffffffffffff16600160a01b026001600160e01b03199092166001600160a01b03909316929092171790555b5082846001600160a01b0316866001600160a01b03167fddf252ad1be2c89b69c2b068fc378daa952ba7f163c4a11628f55a4df523b3ef60405160405180910390a45b5050505050565b6000826120958584612402565b14949350505050565b6109be82826040518060200160405280600081525061246e565b60408051808201909152600080825260208201526120d7826000541190565b61210d576040517fdf2d9b4200000000000000000000000000000000000000000000000000000000815260040160405180910390fd5b815b6000818152600360209081526040918290208251808401909352546001600160a01b038116808452600160a01b90910467ffffffffffffffff16918301919091521561215c579392505050565b506000190161210f565b600780546001600160a01b038381167fffffffffffffffffffffffff0000000000000000000000000000000000000000831681179093556040519116919082907f8be0079c531659141344cd1fd0a4f28419497f9722a3daafe3b4186f6b6457e090600090a35050565b60006001600160a01b0384163b156122c457604051630a85bd0160e11b81526001600160a01b0385169063150b7a0290612214903390899088908890600401612cc4565b6020604051808303816000875af192505050801561224f575060408051601f3d908101601f1916820190925261224c91810190612d00565b60015b6122aa573d80801561227d576040519150601f19603f3d011682016040523d82523d6000602084013e612282565b606091505b5080516122a2576040516368d2bf6b60e11b815260040160405180910390fd5b805181602001fd5b6001600160e01b031916630a85bd0160e11b1490506122c8565b5060015b949350505050565b60608161231057505060408051808201909152600181527f3000000000000000000000000000000000000000000000000000000000000000602082015290565b8160005b811561233a578061232481612bba565b91506123339050600a83612b79565b9150612314565b60008167ffffffffffffffff81111561235557612355612718565b6040519080825280601f01601f19166020018201604052801561237f576020820181803683370190505b5090505b84156122c857612394600183612b8d565b91506123a1600a86612d1d565b6123ac906030612b16565b60f81b8183815181106123c1576123c1612ba4565b60200101907effffffffffffffffffffffffffffffffffffffffffffffffffffffffffffff1916908160001a9053506123fb600a86612b79565b9450612383565b600081815b84518110156114ee57600085828151811061242457612424612ba4565b6020026020010151905080831161244a576000838152602082905260409020925061245b565b600081815260208490526040902092505b508061246681612bba565b915050612407565b610b6e83838360016000546001600160a01b0385166124b9576040517f2e07630000000000000000000000000000000000000000000000000000000000815260040160405180910390fd5b836124f0576040517fb562e8dd00000000000000000000000000000000000000000000000000000000815260040160405180910390fd5b6001600160a01b038516600081815260046020908152604080832080547001000000000000000000000000000000006fffffffffffffffffffffffffffffffff1982166fffffffffffffffffffffffffffffffff9283168c01831690811782900483168c01909216021790558483526003909152812080546001600160e01b031916909217600160a01b4267ffffffffffffffff16021790915581905b8581101561260e5760405182906001600160a01b038916906000907fddf252ad1be2c89b69c2b068fc378daa952ba7f163c4a11628f55a4df523b3ef908290a48380156125e457506125e260008884886121d0565b155b15612602576040516368d2bf6b60e11b815260040160405180910390fd5b6001918201910161258d565b50600055612081565b82805461262390612ac5565b90600052602060002090601f016020900481019282612645576000855561268b565b82601f1061265e57805160ff191683800117855561268b565b8280016001018555821561268b579182015b8281111561268b578251825591602001919060010190612670565b5061129a9291505b8082111561129a5760008155600101612693565b6001600160e01b0319811681146117f757600080fd5b6000602082840312156126cf57600080fd5b81356126da816126a7565b9392505050565b80356001600160a01b03811681146126f857600080fd5b919050565b60006020828403121561270f57600080fd5b6126da826126e1565b634e487b7160e01b600052604160045260246000fd5b604051601f8201601f1916810167ffffffffffffffff8111828210171561275757612757612718565b604052919050565b600067ffffffffffffffff83111561277957612779612718565b61278c601f8401601f191660200161272e565b90508281528383830111156127a057600080fd5b828260208301376000602084830101529392505050565b6000602082840312156127c957600080fd5b813567ffffffffffffffff8111156127e057600080fd5b8201601f810184136127f157600080fd5b6122c88482356020840161275f565b60005b8381101561281b578181015183820152602001612803565b838111156111af5750506000910152565b60008151808452612844816020860160208601612800565b601f01601f19169290920160200192915050565b6020815260006126da602083018461282c565b60006020828403121561287d57600080fd5b5035919050565b6000806040838503121561289757600080fd5b6128a0836126e1565b946020939093013593505050565b6000806000606084860312156128c357600080fd5b6128cc846126e1565b92506128da602085016126e1565b9150604084013590509250925092565b600080604083850312156128fd57600080fd5b823567ffffffffffffffff8082111561291557600080fd5b818501915085601f83011261292957600080fd5b813560208282111561293d5761293d612718565b8160051b925061294e81840161272e565b828152928401810192818101908985111561296857600080fd5b948201945b848610156129865785358252948201949082019061296d565b9997909101359750505050505050565b6020808252825182820181905260009190848201906040850190845b818110156129ce578351835292840192918401916001016129b2565b50909695505050505050565b600080604083850312156129ed57600080fd5b6129f6836126e1565b915060208301358015158114612a0b57600080fd5b809150509250929050565b60008060008060808587031215612a2c57600080fd5b612a35856126e1565b9350612a43602086016126e1565b925060408501359150606085013567ffffffffffffffff811115612a6657600080fd5b8501601f81018713612a7757600080fd5b612a868782356020840161275f565b91505092959194509250565b60008060408385031215612aa557600080fd5b612aae836126e1565b9150612abc602084016126e1565b90509250929050565b600181811c90821680612ad957607f821691505b60208210811415612afa57634e487b7160e01b600052602260045260246000fd5b50919050565b634e487b7160e01b600052601160045260246000fd5b60008219821115612b2957612b29612b00565b500190565b6000816000190483118215151615612b4857612b48612b00565b500290565b634e487b7160e01b600052600160045260246000fd5b634e487b7160e01b600052601260045260246000fd5b600082612b8857612b88612b63565b500490565b600082821015612b9f57612b9f612b00565b500390565b634e487b7160e01b600052603260045260246000fd5b6000600019821415612bce57612bce612b00565b5060010190565b60008151612be7818560208601612800565b9290920192915050565b600080845481600182811c915080831680612c0d57607f831692505b6020808410821415612c2d57634e487b7160e01b86526022600452602486fd5b818015612c415760018114612c5257612c7f565b60ff19861689528489019650612c7f565b60008b81526020902060005b86811015612c775781548b820152908501908301612c5e565b505084890196505b505050505050612cbb612c928286612bd5565b7f2e6a736f6e000000000000000000000000000000000000000000000000000000815260050190565b95945050505050565b60006001600160a01b03808716835280861660208401525083604083015260806060830152612cf6608083018461282c565b9695505050505050565b600060208284031215612d1257600080fd5b81516126da816126a7565b600082612d2c57612d2c612b63565b50069056fea2646970667358221220976037fae6ff42575a8f7a5d5deac76ca835a69e35b7d6bdd96a1e197d96424e64736f6c634300080c0033",
  "immutableReferences": {},
  "source": "// SPDX-License-Identifier: MIT\r\npragma solidity ^0.8.0;\r\n\r\nimport \"./ERC721A.sol\";\r\nimport \"@openzeppelin/contracts/access/Ownable.sol\";\r\nimport \"@openzeppelin/contracts/utils/cryptography/MerkleProof.sol\";\r\n\r\ncontract SquareBears is ERC721A, Ownable{\r\n    using Strings for uint256;\r\n\r\n    uint256 public constant MAX_SUPPLY = 6665;\r\n    uint256 public constant MAX_WHITELIST_SUPPLY = 3100;\r\n    uint256 public constant MAX_PUBLIC_MINT = 10;\r\n    uint256 public constant MAX_WHITELIST_MINT = 3;\r\n    uint256 public constant PUBLIC_SALE_PRICE = .099 ether;\r\n    uint256 public constant WHITELIST_SALE_PRICE = .0799 ether;\r\n\r\n    string private  baseTokenUri;\r\n    string public   placeholderTokenUri;\r\n\r\n    //deploy smart contract, toggle WL, toggle WL when done, toggle publicSale \r\n    //2 days later toggle reveal\r\n    bool public isRevealed;\r\n    bool public publicSale;\r\n    bool public whiteListSale;\r\n    bool public pause;\r\n    bool public teamMinted;\r\n\r\n    bytes32 private merkleRoot;\r\n\r\n    mapping(address => uint256) public totalPublicMint;\r\n    mapping(address => uint256) public totalWhitelistMint;\r\n\r\n    constructor() ERC721A(\"Square Bears\", \"SQB\"){\r\n\r\n    }\r\n\r\n    modifier callerIsUser() {\r\n        require(tx.origin == msg.sender, \"Square Bears :: Cannot be called by a contract\");\r\n        _;\r\n    }\r\n\r\n    function mint(uint256 _quantity) external payable callerIsUser{\r\n        require(publicSale, \"Square Bears :: Not Yet Active.\");\r\n        require((totalSupply() + _quantity) <= MAX_SUPPLY, \"Square Bears :: Beyond Max Supply\");\r\n        require((totalPublicMint[msg.sender] +_quantity) <= MAX_PUBLIC_MINT, \"Square Bears :: Already minted 3 times!\");\r\n        require(msg.value >= (PUBLIC_SALE_PRICE * _quantity), \"Square Bears :: Below \");\r\n\r\n        totalPublicMint[msg.sender] += _quantity;\r\n        _safeMint(msg.sender, _quantity);\r\n    }\r\n\r\n    function whitelistMint(bytes32[] memory _merkleProof, uint256 _quantity) external payable callerIsUser{\r\n        require(whiteListSale, \"Square Bears :: Minting is on Pause\");\r\n        require((totalSupply() + _quantity) <= MAX_SUPPLY, \"Square Bears :: Cannot mint beyond max supply\");\r\n        require((totalWhitelistMint[msg.sender] + _quantity)  <= MAX_WHITELIST_MINT, \"Square Bears :: Cannot mint beyond whitelist max mint!\");\r\n        require(msg.value >= (WHITELIST_SALE_PRICE * _quantity), \"Square Bears :: Payment is below the price\");\r\n        //create leaf node\r\n        bytes32 sender = keccak256(abi.encodePacked(msg.sender));\r\n        require(MerkleProof.verify(_merkleProof, merkleRoot, sender), \"Square Bears :: You are not whitelisted\");\r\n\r\n        totalWhitelistMint[msg.sender] += _quantity;\r\n        _safeMint(msg.sender, _quantity);\r\n    }\r\n\r\n    function teamMint() external onlyOwner{\r\n        require(!teamMinted, \"Square Bears :: Team already minted\");\r\n        teamMinted = true;\r\n        _safeMint(msg.sender, 200);\r\n    }\r\n\r\n    function _baseURI() internal view virtual override returns (string memory) {\r\n        return baseTokenUri;\r\n    }\r\n\r\n    //return uri for certain token\r\n    function tokenURI(uint256 tokenId) public view virtual override returns (string memory) {\r\n        require(_exists(tokenId), \"ERC721Metadata: URI query for nonexistent token\");\r\n\r\n        if(!isRevealed){\r\n            return placeholderTokenUri;\r\n        }\r\n        //string memory baseURI = _baseURI();\r\n        return bytes(baseTokenUri).length > 0 ? string(abi.encodePacked(baseTokenUri, (tokenId+1).toString(), \".json\")) : \"\";\r\n    }\r\n\r\n    /// @dev walletOf() function shouldn't be called on-chain due to gas consumption\r\n    function walletOf() external view returns(uint256[] memory){\r\n        address _owner = msg.sender;\r\n        uint256 numberOfOwnedNFT = balanceOf(_owner);\r\n        uint256[] memory ownerIds = new uint256[](numberOfOwnedNFT);\r\n\r\n        for(uint256 index = 0; index < numberOfOwnedNFT; index++){\r\n            ownerIds[index] = tokenOfOwnerByIndex(_owner, index);\r\n        }\r\n\r\n        return ownerIds;\r\n    }\r\n\r\n    function setTokenUri(string memory _baseTokenUri) external onlyOwner{\r\n        baseTokenUri = _baseTokenUri;\r\n    }\r\n    function setPlaceHolderUri(string memory _placeholderTokenUri) external onlyOwner{\r\n        placeholderTokenUri = _placeholderTokenUri;\r\n    }\r\n\r\n    function setMerkleRoot(bytes32 _merkleRoot) external onlyOwner{\r\n        merkleRoot = _merkleRoot;\r\n    }\r\n\r\n    function getMerkleRoot() external view returns (bytes32){\r\n        return merkleRoot;\r\n    }\r\n\r\n    function togglePause() external onlyOwner{\r\n        pause = !pause;\r\n    }\r\n\r\n    function toggleWhiteListSale() external onlyOwner{\r\n        whiteListSale = !whiteListSale;\r\n    }\r\n\r\n    function togglePublicSale() external onlyOwner{\r\n        publicSale = !publicSale;\r\n    }\r\n\r\n    function toggleReveal() external onlyOwner{\r\n        isRevealed = !isRevealed;\r\n    }\r\n\r\n    function withdraw() external onlyOwner{\r\n        //35% to utility/investors wallet\r\n        uint256 withdrawAmount_35 = address(this).balance * 35/100;\r\n        //20% to artist (post utility)\r\n        uint256 withdrawAmount_20 = (address(this).balance - withdrawAmount_35) * 20/100;\r\n        //5% to advisor (post utility)\r\n        uint256 withdrawAmount_5 = (address(this).balance - withdrawAmount_35) * 5/100;\r\n        payable(0xF70cE6c33687fCB68B823858766Ae515D4928945).transfer(withdrawAmount_35);\r\n        payable(0xC44146197386B2b23c11FFbb37D91a004f5bd829).transfer(withdrawAmount_20);\r\n        payable(0xBD584cE590B7dcdbB93b11e095d9E1D5880B44d9).transfer(withdrawAmount_5);\r\n        payable(msg.sender).transfer(address(this).balance);\r\n    }\r\n}",
  "sourcePath": "C:\\REZAREKT-D\\Documents\\Projects\\Work\\Clients\\Scare Bears\\scarebears-contracts\\contracts\\ScareBears.sol",
  "compiler": {
    "name": "solc",
    "version": "0.8.12+commit.f00d7308.Emscripten.clang"
  },
  "schemaVersion": "3.4.3",
  "updatedAt": "2022-02-21T18:34:54.075Z",
  "networkType": "ethereum",
  "devdoc": {
    "kind": "dev",
    "methods": {
      "approve(address,uint256)": {
        "details": "See {IERC721-approve}."
      },
      "balanceOf(address)": {
        "details": "See {IERC721-balanceOf}."
      },
      "getApproved(uint256)": {
        "details": "See {IERC721-getApproved}."
      },
      "isApprovedForAll(address,address)": {
        "details": "See {IERC721-isApprovedForAll}."
      },
      "name()": {
        "details": "See {IERC721Metadata-name}."
      },
      "owner()": {
        "details": "Returns the address of the current owner."
      },
      "ownerOf(uint256)": {
        "details": "See {IERC721-ownerOf}."
      },
      "renounceOwnership()": {
        "details": "Leaves the contract without owner. It will not be possible to call `onlyOwner` functions anymore. Can only be called by the current owner. NOTE: Renouncing ownership will leave the contract without an owner, thereby removing any functionality that is only available to the owner."
      },
      "safeTransferFrom(address,address,uint256)": {
        "details": "See {IERC721-safeTransferFrom}."
      },
      "safeTransferFrom(address,address,uint256,bytes)": {
        "details": "See {IERC721-safeTransferFrom}."
      },
      "setApprovalForAll(address,bool)": {
        "details": "See {IERC721-setApprovalForAll}."
      },
      "supportsInterface(bytes4)": {
        "details": "See {IERC165-supportsInterface}."
      },
      "symbol()": {
        "details": "See {IERC721Metadata-symbol}."
      },
      "tokenByIndex(uint256)": {
        "details": "See {IERC721Enumerable-tokenByIndex}."
      },
      "tokenOfOwnerByIndex(address,uint256)": {
        "details": "See {IERC721Enumerable-tokenOfOwnerByIndex}. This read function is O(totalSupply). If calling from a separate contract, be sure to test gas first. It may also degrade with extremely large collection sizes (e.g >> 10000), test for your use case."
      },
      "tokenURI(uint256)": {
        "details": "See {IERC721Metadata-tokenURI}."
      },
      "totalSupply()": {
        "details": "See {IERC721Enumerable-totalSupply}."
      },
      "transferFrom(address,address,uint256)": {
        "details": "See {IERC721-transferFrom}."
      },
      "transferOwnership(address)": {
        "details": "Transfers ownership of the contract to a new account (`newOwner`). Can only be called by the current owner."
      },
      "walletOf()": {
        "details": "walletOf() function shouldn't be called on-chain due to gas consumption"
      }
    },
    "version": 1
  },
  "userdoc": {
    "kind": "user",
    "methods": {},
    "version": 1
  }
}